:020000040000FA
:06000000BBEF00F012004E
:0600080096EF00F012006B
:06002A000200B00100001D
:100030009400000001000000A60100008A000000FA
:040040000A000000B2
:0C0044002A0EF66E000EF76E000EF86E2D
:1000500000010900F550856F0900F550866F03E136
:10006000856701D03DD00900F550806F0900F5503B
:10007000816F0900F550826F09000900F550E96EA3
:100080000900F550EA6E090009000900F550836F78
:100090000900F550846F09000900F6CF87F0F7CF0B
:1000A00088F0F8CF89F080C0F6FF81C0F7FF82C0EA
:1000B000F8FF0001835302E1845307E00900F55083
:1000C000EE6E8307F8E28407F9D787C0F6FF88C091
:1000D000F7FF89C0F8FF00018507000E865BBFD7D8
:0200E00012000C
:0E00E200D9CFE6FFE1CFD9FFE652DF6AA9ECE5
:1000F00000F0AEEC00F0B7EC00F0D0EC00F0000146
:1001000094050EE1DF50EA6A8A0FE96E000EEA22DA
:10011000EF508B6EDF2A0A0EDF5C01E1DF6A946B21
:0C012000EED7E552E552E7CFD9FF120000
:04012C00DACFE4FF43
:10013000E2CFDAFFE652F2A408D00001010E946F7C
:10014000F40ED76E8E0ED66EF294E552E5CFDAFF3E
:0201500011009C
:0E01520095968C96946A8B6A1200F294070EB2
:10016000D56EF40ED76E8E0ED66ED58E1200F28C32
:06017000F28EF28A12007B
:0A01760015EE00F025EE00F0F86A27
:10018000019C22EC00F0D2EC00F071EC00F0FBD707
:0201900012005B
:0E01920000EE00F00F0EEE6AEA62FDD71200DA
:0401A0008C86120037
:0201A400120047
:0A01A6003F065B4F666D7D077F6F1B
:0101B000004E
:020000040030CA
:0100010002FC
:010003001EDE
:010006008178
:00000001FF
